{
	"safe": "0xf3B46870658211414684E061BC1514213e80c49c",
	"to": "0x9641d764fc13c8B624c04430C7356C1C7C8102e2",
	"value": "0",
	"data": "0x8d80ff0a0000000000000000000000000000000000000000000000000000000000000020000000000000000000000000000000000000000000000000000000000000013200af88d065e77c8cc2239327c5edb3a432268e583100000000000000000000000000000000000000000000000000000000000000000000000000000000000000000000000000000000000000000000000000000044095ea7b30000000000000000000000002d2d600cae6d0fcb3f0ecb993736ea4703a2fdd000000000000000000000000000000000000000000000000000000000001e8480002d2d600cae6d0fcb3f0ecb993736ea4703a2fdd0000000000000000000000000000000000000000000000000000000000000000000000000000000000000000000000000000000000000000000000000000000442cb4f4b741f9f92f0e886089a2a6a5b5c41373a3f0d31d3245e1c331ec582db4386eae7c00000000000000000000000000000000000000000000000000000000001e84800000000000000000000000000000",
	"operation": 1,
	"gasToken": "0x0000000000000000000000000000000000000000",
	"safeTxGas": 0,
	"baseGas": 0,
	"gasPrice": "0",
	"refundReceiver": "0x0000000000000000000000000000000000000000",
	"nonce": 0,
	"executionDate": "2026-02-08T03:40:51Z",
	"submissionDate": "2026-02-08T03:40:51Z",
	"modified": "2026-02-08T03:40:51Z",
	"blockNumber": 429798613,
	"transactionHash": "0x37a5e65d990089734fa25af19e2767cf663fb2be9ed718dbc2d981872966c75f",
	"safeTxHash": "0xcc29eb7274575a6f5ff90a15f0ecc267bb8f8253feb1f659c828ef09e5bc4152",
	"proposer": null,
	"proposedByDelegate": null,
	"executor": "0x2f1B9CA4667c7e5A77cBfBa491461Dde6BF6ED34",
	"isExecuted": true,
	"isSuccessful": true,
	"ethGasPrice": "20212000",
	"maxFeePerGas": "30342000",
	"maxPriorityFeePerGas": null,
	"gasUsed": 475666,
	"fee": "9614161192000",
	"origin": "{}",
	"dataDecoded": {
		"method": "multiSend",
		"parameters": [
			{
				"name": "transactions",
				"type": "bytes",
				"value": "0x00af88d065e77c8cc2239327c5edb3a432268e583100000000000000000000000000000000000000000000000000000000000000000000000000000000000000000000000000000000000000000000000000000044095ea7b30000000000000000000000002d2d600cae6d0fcb3f0ecb993736ea4703a2fdd000000000000000000000000000000000000000000000000000000000001e8480002d2d600cae6d0fcb3f0ecb993736ea4703a2fdd0000000000000000000000000000000000000000000000000000000000000000000000000000000000000000000000000000000000000000000000000000000442cb4f4b741f9f92f0e886089a2a6a5b5c41373a3f0d31d3245e1c331ec582db4386eae7c00000000000000000000000000000000000000000000000000000000001e8480",
				"valueDecoded": [
					{
						"operation": 0,
						"to": "0xaf88d065e77c8cC2239327C5EDb3A432268e5831",
						"value": "0",
						"data": "0x095ea7b30000000000000000000000002d2d600cae6d0fcb3f0ecb993736ea4703a2fdd000000000000000000000000000000000000000000000000000000000001e8480",
						"dataDecoded": {
							"method": "approve",
							"parameters": [
								{
									"name": "spender",
									"type": "address",
									"value": "0x2D2D600cae6D0fCB3f0EcB993736eA4703a2fDD0"
								},
								{
									"name": "value",
									"type": "uint256",
									"value": "2000000"
								}
							]
						}
					},
					{
						"operation": 0,
						"to": "0x2D2D600cae6D0fCB3f0EcB993736eA4703a2fDD0",
						"value": "0",
						"data": "0x2cb4f4b741f9f92f0e886089a2a6a5b5c41373a3f0d31d3245e1c331ec582db4386eae7c00000000000000000000000000000000000000000000000000000000001e8480",
						"dataDecoded": null
					}
				]
			}
		]
	},
	"confirmationsRequired": 1,
	"confirmations": [
		{
			"owner": "0x0DB254712f61ceE38aC57A24E398c75de354AEe4",
			"submissionDate": "2026-02-08T03:40:51Z",
			"transactionHash": null,
			"signature": "0x0000000000000000000000000db254712f61cee38ac57a24e398c75de354aee4000000000000000000000000000000000000000000000000000000000000004100000000000000000000000000000000000000000000000000000000000000004198da6555ab15d04693efe3f1ed7c7a29ceb472aec2f3bb64fdaecc5c213e27c45ceebbba14c9263383c520fead2b4231dd0b871e32ca1b7a380728b0635fdc361b",
			"signatureType": "CONTRACT_SIGNATURE"
		}
	],
	"trusted": true,
	"signatures": "0x0000000000000000000000000db254712f61cee38ac57a24e398c75de354aee4000000000000000000000000000000000000000000000000000000000000004100000000000000000000000000000000000000000000000000000000000000004198da6555ab15d04693efe3f1ed7c7a29ceb472aec2f3bb64fdaecc5c213e27c45ceebbba14c9263383c520fead2b4231dd0b871e32ca1b7a380728b0635fdc361b"
}
